{
  "contractName": "Decoder",
  "abi": [
    {
      "constant": true,
      "inputs": [
        {
          "name": "messageHash",
          "type": "bytes32"
        },
        {
          "name": "messageSignature",
          "type": "bytes"
        }
      ],
      "name": "recoverKey",
      "outputs": [
        {
          "name": "",
          "type": "address"
        }
      ],
      "payable": false,
      "stateMutability": "pure",
      "type": "function",
      "signature": "0xd50e40ea"
    },
    {
      "constant": true,
      "inputs": [
        {
          "name": "signature",
          "type": "bytes"
        }
      ],
      "name": "signatureSplit",
      "outputs": [
        {
          "name": "v",
          "type": "uint8"
        },
        {
          "name": "r",
          "type": "bytes32"
        },
        {
          "name": "s",
          "type": "bytes32"
        }
      ],
      "payable": false,
      "stateMutability": "pure",
      "type": "function",
      "signature": "0xefcd1cd9"
    },
    {
      "constant": true,
      "inputs": [
        {
          "name": "data",
          "type": "bytes"
        }
      ],
      "name": "toEthSignedMessageHash",
      "outputs": [
        {
          "name": "",
          "type": "bytes32"
        }
      ],
      "payable": false,
      "stateMutability": "pure",
      "type": "function",
      "signature": "0x92bd87b5"
    }
  ],
  "bytecode": "0x6104fe610030600b82828239805160001a6073146000811461002057610022565bfe5b5030600052607381538281f3fe730000000000000000000000000000000000000000301460806040526004361061006e576000357c0100000000000000000000000000000000000000000000000000000000900463ffffffff16806392bd87b514610073578063d50e40ea14610142578063efcd1cd914610247575b600080fd5b61012c6004803603602081101561008957600080fd5b81019080803590602001906401000000008111156100a657600080fd5b8201836020820111156100b857600080fd5b803590602001918460018302840111640100000000831117156100da57600080fd5b91908080601f016020809104026020016040519081016040528093929190818152602001838380828437600081840152601f19601f82011690508083019250505050505050919291929050505061032a565b6040518082815260200191505060405180910390f35b6102056004803603604081101561015857600080fd5b81019080803590602001909291908035906020019064010000000081111561017f57600080fd5b82018360208201111561019157600080fd5b803590602001918460018302840111640100000000831117156101b357600080fd5b91908080601f016020809104026020016040519081016040528093929190818152602001838380828437600081840152601f19601f8201169050808301925050505050505091929192905050506103cf565b604051808273ffffffffffffffffffffffffffffffffffffffff1673ffffffffffffffffffffffffffffffffffffffff16815260200191505060405180910390f35b6103006004803603602081101561025d57600080fd5b810190808035906020019064010000000081111561027a57600080fd5b82018360208201111561028c57600080fd5b803590602001918460018302840111640100000000831117156102ae57600080fd5b91908080601f016020809104026020016040519081016040528093929190818152602001838380828437600081840152601f19601f8201169050808301925050505050505091929192905050506104ae565b604051808460ff1660ff168152602001838152602001828152602001935050505060405180910390f35b60008160405160200180807f19457468657265756d205369676e6564204d6573736167653a0a363400000000815250601c0182805190602001908083835b60208310151561038d5780518252602082019150602081019050602083039250610368565b6001836020036101000a038019825116818451168082178552505050505050905001915050604051602081830303815290604052805190602001209050919050565b6000604182511415156103e557600090506104a8565b60008060006103f3856104ae565b809350819450829550505050601b8360ff16101561041257601b830192505b601b8360ff161415801561042a5750601c8360ff1614155b1561043b57600093505050506104a8565b60018684848460405160008152602001604052604051808581526020018460ff1660ff1681526020018381526020018281526020019450505050506020604051602081039080840390855afa158015610498573d6000803e3d6000fd5b5050506020604051035193505050505b92915050565b60008060006020840151915060408401519050606084015160001a9250919390925056fea165627a7a723058201a7e13d0f954f521f3aa91fb54577f06eb96242e766c8cb82880b3303f0dd7240029",
  "source": "pragma solidity ^0.5.0;\n\n\nlibrary Decoder {\n    \n    function recoverKey (\n        bytes32 messageHash, \n        bytes memory messageSignature\n    )\n        public\n        pure\n        returns (address) \n    {\n        if (messageSignature.length != 65) {\n            return (address(0));\n        }\n        uint8 v;\n        bytes32 r;\n        bytes32 s;\n        (v, r, s) = signatureSplit(messageSignature);\n        if (v < 27) {\n            v += 27;\n        }\n\n        // If the version is correct return the signer address\n        if (v != 27 && v != 28) {\n            return (address(0));\n        } else {\n            return ecrecover(messageHash, v, r, s);\n        }\n    }\n\n    /// @dev divides bytes signature into `uint8 v, bytes32 r, bytes32 s`\n    /// @param signature concatenated rsv signatures\n    function signatureSplit(bytes memory signature)\n        public\n        pure\n        returns (uint8 v, bytes32 r, bytes32 s)\n    {\n        // The signature format is a compact form of:\n        //   {bytes32 r}{bytes32 s}{uint8 v}\n        // Compact means, uint8 is not padded to 32 bytes.\n        // solium-disable-next-line security/no-inline-assembly\n        assembly {\n            r := mload(add(signature, 0x20))\n            s := mload(add(signature, 0x40))\n            v := byte(0, mload(add(signature, 0x60)))\n            // v := and(mload(add(signatures, add(signaturePos, 0x41))), 0xff)\n        }\n    }\n    \n    function toEthSignedMessageHash(bytes memory data)\n    public\n    pure\n    returns (bytes32)\n    {\n        return keccak256(\n            abi.encodePacked(\"\\x19Ethereum Signed Message:\\n64\", data)\n        );\n    }  \n}\n",
  "sourcePath": "/Users/prateekyammanuru/work/interviews/matic/1/contracts/Decoder.sol",
  "compiler": {
    "name": "solc",
    "version": "0.5.0+commit.1d4f565a.Emscripten.clang"
  },
  "schemaVersion": "3.0.1",
  "updatedAt": "2019-02-06T11:17:20.554Z",
  "devdoc": {
    "methods": {
      "signatureSplit(bytes)": {
        "details": "divides bytes signature into `uint8 v, bytes32 r, bytes32 s`",
        "params": {
          "signature": "concatenated rsv signatures"
        }
      }
    }
  },
  "userdoc": {
    "methods": {}
  }
}