{
  "contractName": "User",
  "abi": [
    {
      "inputs": [
        {
          "name": "_owner",
          "type": "address"
        }
      ],
      "payable": false,
      "stateMutability": "nonpayable",
      "type": "constructor",
      "signature": "constructor"
    },
    {
      "anonymous": false,
      "inputs": [
        {
          "indexed": false,
          "name": "ethereumDataHash",
          "type": "bytes32"
        },
        {
          "indexed": false,
          "name": "userAddr",
          "type": "address"
        }
      ],
      "name": "TestData",
      "type": "event",
      "signature": "0xb8e59441d9780b52261f05d5726ab60d25f7ac30a290fea7d5aad1c788f49e86"
    },
    {
      "constant": false,
      "inputs": [
        {
          "name": "data",
          "type": "bytes"
        },
        {
          "name": "signature",
          "type": "bytes"
        }
      ],
      "name": "setPerson",
      "outputs": [
        {
          "name": "",
          "type": "bool"
        }
      ],
      "payable": false,
      "stateMutability": "nonpayable",
      "type": "function",
      "signature": "0x3e2cff0a"
    },
    {
      "constant": false,
      "inputs": [
        {
          "name": "_data",
          "type": "bytes"
        },
        {
          "name": "_signature",
          "type": "bytes"
        }
      ],
      "name": "getHash",
      "outputs": [],
      "payable": false,
      "stateMutability": "nonpayable",
      "type": "function",
      "signature": "0xb58e31b0"
    }
  ],
  "bytecode": "0x608060405234801561001057600080fd5b5060405160208061096b8339810180604052602081101561003057600080fd5b8101908080519060200190929190505050806000806101000a81548173ffffffffffffffffffffffffffffffffffffffff021916908373ffffffffffffffffffffffffffffffffffffffff160217905550506108da806100916000396000f3fe60806040526004361061004c576000357c0100000000000000000000000000000000000000000000000000000000900463ffffffff1680633e2cff0a14610051578063b58e31b0146101c8575b600080fd5b34801561005d57600080fd5b506101ae6004803603604081101561007457600080fd5b810190808035906020019064010000000081111561009157600080fd5b8201836020820111156100a357600080fd5b803590602001918460018302840111640100000000831117156100c557600080fd5b91908080601f016020809104026020016040519081016040528093929190818152602001838380828437600081840152601f19601f8201169050808301925050505050505091929192908035906020019064010000000081111561012857600080fd5b82018360208201111561013a57600080fd5b8035906020019184600183028401116401000000008311171561015c57600080fd5b91908080601f016020809104026020016040519081016040528093929190818152602001838380828437600081840152601f19601f820116905080830192505050505050509192919290505050610327565b604051808215151515815260200191505060405180910390f35b3480156101d457600080fd5b50610325600480360360408110156101eb57600080fd5b810190808035906020019064010000000081111561020857600080fd5b82018360208201111561021a57600080fd5b8035906020019184600183028401116401000000008311171561023c57600080fd5b91908080601f016020809104026020016040519081016040528093929190818152602001838380828437600081840152601f19601f8201169050808301925050505050505091929192908035906020019064010000000081111561029f57600080fd5b8201836020820111156102b157600080fd5b803590602001918460018302840111640100000000831117156102d357600080fd5b91908080601f016020809104026020016040519081016040528093929190818152602001838380828437600081840152601f19601f82011690508083019250505050505050919291929050505061061d565b005b60008282600073__Decoder_______________________________6392bd87b5846040518263ffffffff167c01000000000000000000000000000000000000000000000000000000000281526004018080602001828103825283818151815260200191508051906020019080838360005b838110156103b3578082015181840152602081019050610398565b50505050905090810190601f1680156103e05780820380516001836020036101000a031916815260200191505b509250505060206040518083038186803b1580156103fd57600080fd5b505af4158015610411573d6000803e3d6000fd5b505050506040513d602081101561042757600080fd5b8101908080519060200190929190505050905073__Decoder_______________________________63d50e40ea82846040518363ffffffff167c01000000000000000000000000000000000000000000000000000000000281526004018083815260200180602001828103825283818151815260200191508051906020019080838360005b838110156104c75780820151818401526020810190506104ac565b50505050905090810190601f1680156104f45780820380516001836020036101000a031916815260200191505b50935050505060206040518083038186803b15801561051257600080fd5b505af4158015610526573d6000803e3d6000fd5b505050506040513d602081101561053c57600080fd5b810190808051906020019092919050505073ffffffffffffffffffffffffffffffffffffffff166000809054906101000a900473ffffffffffffffffffffffffffffffffffffffff1673ffffffffffffffffffffffffffffffffffffffff16141515610610576040517f08c379a00000000000000000000000000000000000000000000000000000000081526004018080602001828103825260198152602001807f6d657373616765206973206e6f742066726f6d206f776e65720000000000000081525060200191505060405180910390fd5b6001935050505092915050565b600073__Decoder_______________________________6392bd87b5846040518263ffffffff167c01000000000000000000000000000000000000000000000000000000000281526004018080602001828103825283818151815260200191508051906020019080838360005b838110156106a557808201518184015260208101905061068a565b50505050905090810190601f1680156106d25780820380516001836020036101000a031916815260200191505b509250505060206040518083038186803b1580156106ef57600080fd5b505af4158015610703573d6000803e3d6000fd5b505050506040513d602081101561071957600080fd5b810190808051906020019092919050505090507fb8e59441d9780b52261f05d5726ab60d25f7ac30a290fea7d5aad1c788f49e868173__Decoder_______________________________63d50e40ea84866040518363ffffffff167c01000000000000000000000000000000000000000000000000000000000281526004018083815260200180602001828103825283818151815260200191508051906020019080838360005b838110156107db5780820151818401526020810190506107c0565b50505050905090810190601f1680156108085780820380516001836020036101000a031916815260200191505b50935050505060206040518083038186803b15801561082657600080fd5b505af415801561083a573d6000803e3d6000fd5b505050506040513d602081101561085057600080fd5b8101908080519060200190929190505050604051808381526020018273ffffffffffffffffffffffffffffffffffffffff1673ffffffffffffffffffffffffffffffffffffffff1681526020019250505060405180910390a150505056fea165627a7a723058202f13bcabafc819e4f8f7fcc42a50934aa9d3de22aab795ce61b9cab05b8423f10029",
  "source": "pragma solidity ^0.5.0;\n\nimport \"./decoder.sol\";\n\ncontract User {\n    struct Person {\n        bytes32 name;\n        bytes32 id;\n        address addr;\n    }\n    \n    address owner;\n    event TestData(bytes32 ethereumDataHash, address userAddr);\n    \n    modifier verifyOwner(bytes memory _data, bytes memory _signature) {\n        bytes32 ethereumDataHash = Decoder.toEthSignedMessageHash(_data);\n        require(owner == Decoder.recoverKey(ethereumDataHash, _signature), \"message is not from owner\");\n        _;\n    }\n    \n    constructor(address _owner) public {\n        owner = _owner;\n    }\n    \n    function setPerson(bytes memory data, bytes memory signature) public verifyOwner(data, signature) returns(bool) {\n        return true;\n    }\n    \n    function getHash(bytes memory _data, bytes memory _signature) public {\n        // bytes32 dataHash = keccak256(_data);\n        bytes32 ethereumDataHash = Decoder.toEthSignedMessageHash(_data);\n        \n        emit TestData(ethereumDataHash, Decoder.recoverKey(ethereumDataHash, _signature));\n    }\n    \n}",
  "sourcePath": "/Users/prateekyammanuru/work/interviews/matic/1/contracts/User.sol",
  "compiler": {
    "name": "solc",
    "version": "0.5.0+commit.1d4f565a.Emscripten.clang"
  },
  "schemaVersion": "3.0.1",
  "updatedAt": "2019-02-06T11:17:20.553Z",
  "devdoc": {
    "methods": {}
  },
  "userdoc": {
    "methods": {}
  }
}